:100000000C9462000C948A000C948A000C948A0070
:100010000C948A000C948A000C948A000C948A0038
:100020000C948A000C948A000C948A000C94F302BD
:100030000C948A000C948A000C948A000C948A0018
:100040000C94A9020C948A000C9477020C9451022F
:100050000C948A000C948A000C948A000C948A00F8
:100060000C948A000C948A000000000023002600F3
:10007000290000000000240027002A0000000000E2
:10008000250028002B0004040404040404040202D4
:100090000202020203030303030301020408102007
:1000A0004080010204081020010204081020000012
:1000B0000008000201000003040700000000000027
:1000C0000000800511241FBECFEFD8E0DEBFCDBFFA
:1000D00011E0A0E0B1E0E6E8FBE002C005900D927F
:1000E000A033B107D9F722E0A0E3B1E001C01D922F
:1000F000A630B207E1F710E0C2E6D0E004C02197D5
:10010000FE010E94AD05C136D107C9F70E941D044A
:100110000C94C1050C940000CF92DF92EF92FF92F5
:100120000F931F93CF93DF936C017A018B01C0E093
:10013000D0E0CE15DF0589F0D8016D918D01D60193
:10014000ED91FC910190F081E02DC6010995892B7C
:1001500011F47E0102C02196ECCFC701DF91CF914F
:100160001F910F91FF90EF90DF90CF900895FC01C9
:10017000918D828D981761F0828DDF01A80FB11DDE
:100180005D968C91928D9F5F9F73928F90E0089502
:100190008FEF9FEF0895FC01918D828D981731F0BC
:1001A000828DE80FF11D858D90E008958FEF9FEF10
:1001B0000895FC01918D228D892F90E0805C9F4FE6
:1001C000821B91098F739927089589E691E00E9417
:1001D000D90021E0892B09F420E0822F0895FC0149
:1001E000848DDF01A80FB11DA35ABF4F2C91848DC0
:1001F00090E001968F739927848FA689B7892C93F5
:10020000A089B1898C9180648C93938D848D98138F
:1002100006C00288F389E02D80818F7D8083089558
:10022000EF92FF920F931F93CF93DF93EC0181E046
:10023000888F9B8D8C8D981305C0E889F989808102
:1002400085FD24C0F62E0B8D10E00F5F1F4F0F733E
:100250001127E02E8C8DE8120CC00FB607FCFACFE8
:10026000E889F989808185FFF5CFCE010E94EF00F2
:10027000F1CF8B8DFE01E80FF11DE35AFF4FF082A5
:100280000B8FEA89FB898081806207C0EE89FF8934
:100290006083E889F98980818064808381E090E0CF
:1002A000DF91CF911F910F91FF90EF900895CF9321
:1002B000DF93EC01888D8823C9F0EA89FB8980816E
:1002C00085FD05C0A889B9898C9186FD0FC00FB640
:1002D00007FCF5CF808185FFF2CFA889B9898C9181
:1002E00085FFEDCFCE010E94EF00E7CFDF91CF91E8
:1002F000089580E090E0892B29F00E94E5008111AB
:100300000C9400000895833081F028F4813099F036
:100310008230A1F008958730A9F08830B9F0843098
:10032000D1F4809180008F7D03C0809180008F7711
:1003300080938000089584B58F7702C084B58F7D47
:1003400084BD08958091B0008F7703C08091B00084
:100350008F7D8093B00008951F93CF93DF93282F54
:1003600030E0F901E255FF4F8491F901E656FF4F65
:10037000D491F901EA57FF4FC491CC23C9F0162F4D
:1003800081110E948301EC2FF0E0EE0FFF1FE45873
:10039000FF4FA591B4918FB7F894111105C09C91AE
:1003A000ED2FE095E92302C0EC91ED2BEC938FBF8C
:1003B000DF91CF911F910895CF93DF9390E0FC01DF
:1003C000E656FF4F2491FC01EA57FF4F84918823A2
:1003D00061F190E0880F991FFC01EE58FF4FC59125
:1003E000D491FC01E458FF4FA591B491611109C06B
:1003F0009FB7F8948881209582238883EC912E23DF
:100400000BC0623061F49FB7F8943881822F8095D9
:1004100083238883EC912E2B2C939FBF06C08FB72C
:10042000F894E8812E2B28838FBFDF91CF91089518
:100430003FB7F8948091430190914401A091450108
:10044000B091460126B5A89B05C02F3F19F0019633
:10045000A11DB11D3FBFBA2FA92F982F8827820F4A
:10046000911DA11DB11DBC01CD0142E0660F771F9A
:10047000881F991F4A95D1F70895009769F0FC01EC
:1004800001900020E9F73197AF01481B590BBC01DF
:1004900089E691E00C948C0080E090E008950E9441
:1004A000B3051F920F920FB60F9211242F933F9313
:1004B0004F935F936F937F938F939F93AF93BF936C
:1004C000EF93FF9389E691E00E94EF00FF91EF9197
:1004D000BF91AF919F918F917F916F915F914F915C
:1004E0003F912F910F900FBE0F901F9018951F9264
:1004F0000F920FB60F9211242F938F939F93EF9328
:10050000FF93E0917901F0917A018081E0917F0180
:10051000F091800182FD12C09081809182018F5FF5
:100520008F7320918301821751F0E0918201F0E0F6
:10053000E759FE4F958F8093820101C08081FF9122
:10054000EF919F918F912F910F900FBE0F901F9061
:1005500018951F920F920FB60F9211242F933F936D
:100560008F939F93AF93BF9380913F0190914001F0
:10057000A0914101B091420130913E0123E0230F4F
:100580002D3720F40196A11DB11D05C026E8230FCB
:100590000296A11DB11D20933E0180933F019093CF
:1005A0004001A0934101B093420180914301909199
:1005B0004401A0914501B09146010196A11DB11DD4
:1005C0008093430190934401A0934501B093460169
:1005D000BF91AF919F918F913F912F910F900FBE3F
:1005E0000F901F9018951F920F920FB60F92112423
:1005F0001F932F933F934F935F936F937F938F93AB
:100600009F93AF93BF93CF93DF93EF93FF9320918B
:10061000000130E0F901E255FF4F8491F901E656FF
:10062000FF4FD491F901EA57FF4FC491CC23A1F0B9
:1006300081110E948301EC2FF0E0EE0FFF1FE859BB
:10064000FF4FA591B491EC91ED2391E080E009F486
:1006500090E0C92FD82F02C0C0E0D0E01C2FC0937B
:100660003D0180913C01882341F080913B0191E064
:10067000980F90933B01882381F080913B01883053
:1006800010F010923B0180914801882309F4C1C009
:1006900040913C014423A9F0BCC060E08AE00E9484
:1006A000AC0160E08CE00E94AC0110923C018091B2
:1006B000390190913A01019690933A018093390162
:1006C000DCCFCD2B29F0809138018F5F80933801EA
:1006D0008091370190913601181759F0903510F03C
:1006E0008DE101C08BE0980F909336011093370194
:1006F00003C09C5E9093360190913601903A08F4C5
:1007000088C020913401309135013695279530937A
:1007100035012093340180913801853028F038600C
:100720003093350120933401905A90933601109202
:10073000380180914701882309F45BC0909133010F
:100740009F5F909333019C3008F463C02091340183
:1007500030913501822F8F73E1E0F1E0DF0190E00D
:100760005D91851721F09F5F9031D1F790E050E1C6
:10077000959FC001112496E0369527959A95E1F74B
:1007800030E05191251721F03F5F3031D1F701C0A2
:10079000432F842B9091670191110EC080933201F9
:1007A0009CEF980F9B3140F01092470180913101EE
:1007B0008F5F809331012DC0E091670191E09E0F22
:1007C00090936701F0E0E75BFE4F808390916701B3
:1007D00080913201981750F01092470180913001BA
:1007E0008F5F8093300181E0809368011092330124
:1007F00010C0809134019091350188339B4049F4B9
:1008000081E08093470110923301109267011092AA
:100810006801FF91EF91DF91CF91BF91AF919F91CF
:100820008F917F916F915F914F913F912F911F9188
:100830000F900FBE0F901F901895CF93DF93CDB7F9
:10084000DEB7EF970FB6F894DEBF0FBECDBF78943A
:1008500084B5826084BD84B5816084BD85B58260C5
:1008600085BD85B5816085BD80916E008160809376
:100870006E001092810080918100826080938100DF
:1008800080918100816080938100809180008160EF
:10089000809380008091B10084608093B10080914A
:1008A000B00081608093B00080917A008460809372
:1008B0007A0080917A00826080937A0080917A0039
:1008C000816080937A0080917A00806880937A00BA
:1008D0001092C1000E9418024B015C0138EEC32E39
:1008E00033E0D32EE12CF12C0E941802DC01CB0165
:1008F00088199909AA09BB09883E9340A105B10549
:1009000058F021E0C21AD108E108F10888EE880EFB
:1009100083E0981EA11CB11CC114D104E104F104B0
:1009200019F7E0917901F0917A0182E08083E091FA
:100930007501F09176011082E0917701F0917801D4
:100940008FEC808310928101E0917D01F0917E0116
:1009500086E08083E0917B01F0917C018081806161
:100960008083E0917B01F0917C01808188608083AD
:10097000E0917B01F0917C01808180688083E0912F
:100980007B01F0917C0180818F7D808381E291E009
:100990000E943D0287E291E00E943D028BE080933D
:1009A00000011092800089E08093810080ED97E043
:1009B000909389008093880080916F00826080937B
:1009C0006F0061E08CE00E94DC0160E0809100013A
:1009D0000E94DC0161E08AE00E94DC0160E08AE0C4
:1009E0000E94AC0180914801811105C081E0809393
:1009F0004801109247017E01F2E2EF0EF11C809156
:100A00006801882309F479C00091670103500E3111
:100A100008F00EE110E0A8016AE471E0C7010E944D
:100A2000B8051092680120916701E9E4F1E08FEFC9
:100A30009FEF215098F031918327082E8295807F77
:100A40008025092E982F82958F70082686959827E5
:100A50008927880F880F880F8025EBCF883B904F20
:100A600009F04BC061E086E00E94AC018AE291E0AF
:100A70000E943D026701C6018E199F0980179107E8
:100A8000A4F5F60141916F0150E060E070E019A219
:100A9000FE01B196DB01CA018F709927AA27BB27F7
:100AA00024E076956795579547952A95D1F7319724
:100AB0008A309105A105B10510F4805D01C0895C03
:100AC0008083411551056105710521F7CF010E9411
:100AD0003D02E0916901F0916A010190F081E02D01
:100AE00060E289E691E00995C6CF87E291E00E9435
:100AF0003D0260E086E00E94AC010E9479017FCF58
:100B0000E9E6F1E01382128288EE93E0A0E0B0E023
:100B100084839583A683B78385E191E09183808365
:100B200085EC90E09587848784EC90E097878687B2
:100B300080EC90E0918B808B81EC90E0938B828BAA
:100B400082EC90E0958B848B86EC90E0978B868B83
:100B5000118E128E138E148E0895EE0FFF1F0590C6
:100B6000F491E02D099481E090E0F8940C94C10593
:100B7000FB01DC0102C001900D9241505040D8F7BA
:060B80000895F894FFCF78
:100B86000B0D0E131516191A1C232526292A2C328D
:100B9600340000000010018C00D900B700CB0057CC
:100BA600017365747570000D0A00476F743A200072
:00000001FF
